{
  "_format": "hh-sol-artifact-1",
  "contractName": "PersonalCalculator",
  "sourceName": "contracts/PersonalCalculator.sol",
  "abi": [
    {
      "inputs": [],
      "stateMutability": "nonpayable",
      "type": "constructor"
    },
    {
      "inputs": [
        {
          "internalType": "uint256",
          "name": "_operandNumber",
          "type": "uint256"
        },
        {
          "internalType": "int256",
          "name": "_number",
          "type": "int256"
        }
      ],
      "name": "calculate",
      "outputs": [
        {
          "internalType": "int256",
          "name": "",
          "type": "int256"
        }
      ],
      "stateMutability": "nonpayable",
      "type": "function"
    },
    {
      "inputs": [
        {
          "internalType": "address",
          "name": "",
          "type": "address"
        }
      ],
      "name": "valuesStored",
      "outputs": [
        {
          "internalType": "int256",
          "name": "",
          "type": "int256"
        }
      ],
      "stateMutability": "view",
      "type": "function"
    }
  ],
  "bytecode": "0x60806040523480156200001157600080fd5b506001620001fd60201b6200018e1790806001815401808255809150506001900390600052602060002090600491828204019190066008029091909190916101000a81548167ffffffffffffffff021916908367ffffffffffffffff16021790555060016200021560201b620001a41790806001815401808255809150506001900390600052602060002090600491828204019190066008029091909190916101000a81548167ffffffffffffffff021916908367ffffffffffffffff16021790555060016200022d60201b620001ba1790806001815401808255809150506001900390600052602060002090600491828204019190066008029091909190916101000a81548167ffffffffffffffff021916908367ffffffffffffffff16021790555060016200024560201b620001d01790806001815401808255809150506001900390600052602060002090600491828204019190066008029091909190916101000a81548167ffffffffffffffff021916908367ffffffffffffffff16021790555060016200025d60201b620001e61790806001815401808255809150506001900390600052602060002090600491828204019190066008029091909190916101000a81548167ffffffffffffffff021916908367ffffffffffffffff160217905550620005ec565b600081836200020d9190620002ae565b905092915050565b600081836200022591906200034c565b905092915050565b600081836200023d919062000419565b905092915050565b600081836200025591906200048d565b905092915050565b600081836200026d9190620005b4565b905092915050565b6000819050919050565b7f4e487b7100000000000000000000000000000000000000000000000000000000600052601160045260246000fd5b6000620002bb8262000275565b9150620002c88362000275565b9250817f7fffffffffffffffffffffffffffffffffffffffffffffffffffffffffffffff038313600083121516156200030657620003056200027f565b5b817f80000000000000000000000000000000000000000000000000000000000000000383126000831216156200034157620003406200027f565b5b828201905092915050565b6000620003598262000275565b9150620003668362000275565b9250827f800000000000000000000000000000000000000000000000000000000000000001821260008412151615620003a457620003a36200027f565b5b827f7fffffffffffffffffffffffffffffffffffffffffffffffffffffffffffffff018213600084121615620003df57620003de6200027f565b5b828203905092915050565b7f4e487b7100000000000000000000000000000000000000000000000000000000600052601260045260246000fd5b6000620004268262000275565b9150620004338362000275565b925082620004465762000445620003ea565b5b600160000383147f8000000000000000000000000000000000000000000000000000000000000000831416156200048257620004816200027f565b5b828205905092915050565b60006200049a8262000275565b9150620004a78362000275565b9250827f7fffffffffffffffffffffffffffffffffffffffffffffffffffffffffffffff0482116000841360008413161615620004e957620004e86200027f565b5b817f800000000000000000000000000000000000000000000000000000000000000005831260008412600084131616156200052957620005286200027f565b5b827f800000000000000000000000000000000000000000000000000000000000000005821260008413600084121616156200056957620005686200027f565b5b827f7fffffffffffffffffffffffffffffffffffffffffffffffffffffffffffffff0582126000841260008412161615620005a957620005a86200027f565b5b828202905092915050565b6000620005c18262000275565b9150620005ce8362000275565b925082620005e157620005e0620003ea565b5b828207905092915050565b61073880620005fc6000396000f3fe608060405234801561001057600080fd5b50600436106100365760003560e01c8063614d2a6f1461003b57806370abc7f61461006b575b600080fd5b61005560048036038101906100509190610269565b61009b565b60405161006291906102af565b60405180910390f35b6100856004803603810190610080919061032c565b6100b3565b60405161009291906102af565b60405180910390f35b60006020528060005260406000206000915090505481565b60006101456000803373ffffffffffffffffffffffffffffffffffffffff1673ffffffffffffffffffffffffffffffffffffffff16815260200190815260200160002054836001868154811061010c5761010b61036c565b5b90600052602060002090600491828204019190066008029054906101000a900480156101fc021767ffffffffffffffff1663ffffffff16565b6000803373ffffffffffffffffffffffffffffffffffffffff1673ffffffffffffffffffffffffffffffffffffffff168152602001908152602001600020819055905092915050565b6000818361019c91906103ca565b905092915050565b600081836101b2919061045e565b905092915050565b600081836101c89190610521565b905092915050565b600081836101de919061058b565b905092915050565b600081836101f491906106a2565b905092915050565b6102046106d3565b565b600080fd5b600073ffffffffffffffffffffffffffffffffffffffff82169050919050565b60006102368261020b565b9050919050565b6102468161022b565b811461025157600080fd5b50565b6000813590506102638161023d565b92915050565b60006020828403121561027f5761027e610206565b5b600061028d84828501610254565b91505092915050565b6000819050919050565b6102a981610296565b82525050565b60006020820190506102c460008301846102a0565b92915050565b6000819050919050565b6102dd816102ca565b81146102e857600080fd5b50565b6000813590506102fa816102d4565b92915050565b61030981610296565b811461031457600080fd5b50565b60008135905061032681610300565b92915050565b6000806040838503121561034357610342610206565b5b6000610351858286016102eb565b925050602061036285828601610317565b9150509250929050565b7f4e487b7100000000000000000000000000000000000000000000000000000000600052603260045260246000fd5b7f4e487b7100000000000000000000000000000000000000000000000000000000600052601160045260246000fd5b60006103d582610296565b91506103e083610296565b9250817f7fffffffffffffffffffffffffffffffffffffffffffffffffffffffffffffff0383136000831215161561041b5761041a61039b565b5b817f80000000000000000000000000000000000000000000000000000000000000000383126000831216156104535761045261039b565b5b828201905092915050565b600061046982610296565b915061047483610296565b9250827f8000000000000000000000000000000000000000000000000000000000000000018212600084121516156104af576104ae61039b565b5b827f7fffffffffffffffffffffffffffffffffffffffffffffffffffffffffffffff0182136000841216156104e7576104e661039b565b5b828203905092915050565b7f4e487b7100000000000000000000000000000000000000000000000000000000600052601260045260246000fd5b600061052c82610296565b915061053783610296565b925082610547576105466104f2565b5b600160000383147f8000000000000000000000000000000000000000000000000000000000000000831416156105805761057f61039b565b5b828205905092915050565b600061059682610296565b91506105a183610296565b9250827f7fffffffffffffffffffffffffffffffffffffffffffffffffffffffffffffff04821160008413600084131616156105e0576105df61039b565b5b817f8000000000000000000000000000000000000000000000000000000000000000058312600084126000841316161561061d5761061c61039b565b5b827f8000000000000000000000000000000000000000000000000000000000000000058212600084136000841216161561065a5761065961039b565b5b827f7fffffffffffffffffffffffffffffffffffffffffffffffffffffffffffffff05821260008412600084121616156106975761069661039b565b5b828202905092915050565b60006106ad82610296565b91506106b883610296565b9250826106c8576106c76104f2565b5b828207905092915050565b7f4e487b7100000000000000000000000000000000000000000000000000000000600052605160045260246000fdfea26469706673582212201c1650dd6dc539c366d84687a21f71632664ba197e240348c2b8561bcb174b8064736f6c634300080b0033",
  "linkReferences": {},
  "deployedLinkReferences": {}
}